:100000000C9492000C94BA000C94BA000C94BA00B0
:100010000C94BA000C94BA000C94BA000C94BA0078
:100020000C94BA000C94BA000C9428040C949A0412
:100030000C94BA000C94BA000C94BA000C94BA0058
:100040000C94BA000C94BA000C94BA000C94BA0048
:100050000C94BA000C94BA000C94BA000C94CA0622
:100060000C94BA000C943A070C9414070C94BA0040
:100070000C94BA000C94BA000C94BA000C94BA0018
:100080000C94BA000C94BA000C94BA000C94BA0008
:100090000C94BA000C94BA000C94BA000C94BA00F8
:1000A0000C94BA000C94BA000C94BA00080B00022D
:1000B0000202010009040000010202000005240000
:1000C0001001052401010104240206052406000193
:1000D0000705810310004009040100020A00000026
:1000E00007050202400000070583024000000403E8
:1000F000090412010002EF02014041233680000191
:100100000102030141726475696E6F204C4C43001B
:1001100041726475696E6F204C656F6E6172646FB9
:1001200000006C0711241FBECFEFDAE0DEBFCDBFA9
:1001300011E0A0E0B1E0EAE2F1E102C005900D9229
:10014000A833B107D9F722E0A8E3B1E001C01D92BE
:10015000A434B207E1F710E0C2E9D0E004C021976F
:10016000FE010E948808C139D107C9F70E94A9077A
:100170000C9493080C940000FC01809156018111AD
:1001800003C08FEF9FEF08959FB7F89482E08093AC
:10019000E9002091F20030E01216130614F421E079
:1001A00030E02115310559F0289884E680935501F7
:1001B0008091F10080838091F200882319F09FBF25
:1001C000C90108958BE68093E800F9CF2FB7F89422
:1001D00083E08093E9009091E800892F807295FF79
:1001E00004C09091F20080E4891B2FBF0895809194
:1001F0004D0181110DC082E08093490184E080931C
:100200004A0110924C0110924B0181E080934D0104
:1002100089E491E00895CF93DF931F92CDB7DEB7C5
:100220006983DC01ED91FC910280F381E02D41E0D6
:1002300050E0BE016F5F7F4F09950F90DF91CF9126
:10024000089583E08093E9008091F200882319F0FB
:100250008AE38093E80008950E94E60090E0089504
:10026000CF93DF931F92CDB7DEB7FC0184859585D0
:1002700097FD05C02FEF3FEF358724870BC0CE01D8
:1002800001960E94BC00019719F4898190E002C098
:100290008FEF9FEF0F90DF91CF9108950F931F93F2
:1002A000CF93DF931F92CDB7DEB78C01FC0184851D
:1002B000958597FF0EC0CE0101960E94BC00019764
:1002C00019F4298130E002C02FEF3FEFF8013587A4
:1002D0002487F801848595850F90DF91CF911F9138
:1002E0000F910895FC018485958597FD0BC09FB7FC
:1002F000F89482E08093E9008091F2009FBF90E043
:10030000019608959FB7F89482E08093E900809168
:10031000F2009FBF90E00895409143015091440145
:10032000209141013091420142175307B4F490915A
:10033000E8009570E1F39091E80092FD19C0809378
:10034000F100809143019091440101968F739927A8
:10035000892B19F48EEF8093E800809143019091EE
:1003600044010196909344018093430181E00895F4
:1003700080E00895CF92DF92EF92FF920F931F9348
:10038000CF93DF931F92CDB7DEB7182F062FE42E41
:10039000862F880F8E5F99830E948C0183E00E94D4
:1003A0008C01F12EC12E9981D92E8C2D8F19801799
:1003B00098F4F601E7FE02C0849101C080810E949A
:1003C0008C01182F80E00E948C018123FFEFCF1A4F
:1003D000DF0A8111EACF01C081E00F90DF91CF9158
:1003E0001F910F91FF90EF90DF90CF900895DF92D3
:1003F000EF92FF920F931F93CF93DF93D82E8A0132
:100400007B01E40EF51EEB01CE15DF0571F0D7FE82
:1004100003C0FE01849101C088810E948C01219655
:100420008111F2CF8FEF9FEF01C0C801DF91CF9113
:100430001F910F91FF90EF90DF9008950F931F93FE
:10044000CF93DF931F92CDB7DEB782E0898342E47A
:1004500050E06CEA70E080E80E94F7010E94F7002B
:10046000DC0112960D911C9113970115110569F08D
:10047000D801ED91FC910280F381E02DBE016F5F08
:100480007F4FC801099597FF07C089810F90DF91C1
:10049000CF911F910F910895F80100851185E5CF47
:1004A000615030F02091F100FC0120830196F8CFDB
:1004B000289884E68093550108953FB7F894809179
:1004C0003D0190913E01A0913F01B091400126B5C0
:1004D000A89B05C02F3F19F00196A11DB11D3FBF7C
:1004E000BA2FA92F982F8827820F911DA11DB11D0A
:1004F000BC01CD0142E0660F771F881F991F4A9506
:10050000D1F70895CF92DF92EF92FF920E945D02A1
:100510006B017C010E945D02DC01CB018C199D09FD
:10052000AE09BF09883E9340A105B10598F3FF903D
:10053000EF90DF90CF9008958F929F92AF92BF92ED
:10054000CF92DF92EF92FF920F931F93CF93DF939F
:100550006C015B017A0180910B01882309F456C07C
:1005600080915601882309F451C08091480180FF91
:1005700005C08091E00082608093E000E70110E018
:100580000AEF83E0882E9AE3992E2097B1F10E941A
:10059000E600811105C00150C9F10E948202F5CF29
:1005A000282F30E0C217D3070CF48C2F4FB7F894E4
:1005B0008092E9009091E80095FF1DC0282F30E05F
:1005C000C21BD30BF501982F915020F0819180939D
:1005D000F100FACFA20EB31E112319F09092E80099
:1005E00009C08091E80085FD06C09092E80011E006
:1005F000209709F010E04FBFC8CF1111C8CF5D9808
:1006000084E6809347011E141F0444F081E090E0CB
:10061000F6019383828380E090E001C0C701DF91FF
:10062000CF911F910F91FF90EF90DF90CF90BF90EF
:10063000AF909F908F900895CF92DF92EF92FF92AC
:100640000F931F93CF93DF936C017A018B01C0E06E
:10065000D0E0CE15DF0589F0D8016D918D01D6016E
:10066000ED91FC910190F081E02DC6010995892B57
:1006700011F47E0102C02196ECCFC701DF91CF912A
:100680001F910F91FF90EF90DF90CF900895089504
:1006900080E090E00895FC01538D448D252F30E0DB
:1006A000842F90E0821B930B541710F0CF9608957F
:1006B00001970895FC01918D828D981761F0828DCC
:1006C000DF01A80FB11D5D968C91928D9F5F9F7386
:1006D000928F90E008958FEF9FEF0895FC01918D28
:1006E000828D981731F0828DE80FF11D858D90E095
:1006F00008958FEF9FEF0895FC01918D228D892F32
:1007000090E0805C9F4F821B91098F739927089519
:1007100087EA91E00E947C0321E0892B09F420E024
:10072000822F0895FC01848DDF01A80FB11DA35A0B
:10073000BF4F2C91848D90E001968F739927848F01
:10074000A689B7892C93A089B1898C9180648C93F8
:10075000938D848D981306C00288F389E02D8081E3
:100760008F7D80830895EF92FF920F931F93CF9315
:10077000DF93EC0181E0888F9B8D8C8D981305C0F1
:10078000E889F989808185FD24C0F62E0B8D10E063
:100790000F5F1F4F0F731127E02E8C8DE8120CC0D6
:1007A0000FB607FCFACFE889F989808185FFF5CF7C
:1007B000CE010E949203F1CF8B8DFE01E80FF11D57
:1007C000E35AFF4FF0820B8FEA89FB8980818062B8
:1007D00007C0EE89FF896083E889F9898081806498
:1007E000808381E090E0DF91CF911F910F91FF9086
:1007F000EF900895CF93DF93EC01888D8823C9F0A3
:10080000EA89FB89808185FD05C0A889B9898C9119
:1008100086FD0FC00FB607FCF5CF808185FFF2CFB4
:10082000A889B9898C9185FFEDCFCE010E949203F2
:10083000E7CFDF91CF91089580E090E0892B29F0F8
:100840000E94880381110C94000008950E948E0874
:100850001F920F920FB60F9211248F939F93809146
:10086000E1009091E100937F9093E10083FF0FC03E
:100870001092E90091E09093EB001092EC0092E36B
:100880009093ED001092560198E09093F00082FF53
:1008900020C093E09093E9009091F200992319F021
:1008A0009AE39093E80090914701992339F0909151
:1008B0004701915090934701992389F190915501F7
:1008C000992339F0909155019150909355019923B6
:1008D00041F184FF10C08091E2008E7E81608093A0
:1008E000E2008091E1008F7E8093E10080914801D9
:1008F0008E7E806111C080FF16C08091E2008E7EE6
:1009000080618093E2008091E1008E7E8093E1001F
:10091000809148018E7E81608093480104C05D9A79
:10092000CDCF289AD6CF9F918F910F900FBE0F9069
:100930001F9018951F920F920FB60F921124CF920D
:10094000DF92EF92FF920F931F932F933F934F935A
:100950005F936F937F938F939F93AF93BF93EF9327
:10096000FF93CF93DF93CDB7DEB76C97DEBFCDBFDC
:100970001092E9008091E80083FFEDC168E0CE01AC
:1009800045960E94500282EF8093E8008D8987FF90
:1009900005C09091E80090FFFCCF03C09EEF9093BC
:1009A000E800982F907609F0C6C09E892F89188D8F
:1009B00091110CC0803829F4809146018093F10098
:1009C00002C01092F1001092F10048C1422F50E095
:1009D000512B913051F4811141C14130510509F041
:1009E0003DC1809146018D7F0BC0933061F4811130
:1009F00035C14130510509F031C180914601826015
:100A0000809346012BC1953041F48091E80080FF2E
:100A1000FCCF20682093E30021C1963009F05FC02D
:100A2000EB8CFC8C1092E90010924401109243016F
:100A3000123091F510924201109241010E941E0263
:100A400099E0BE016F5F7F4FDB01E92F1D92EA95B0
:100A5000E9F799831A8391E09E8390EA98879AEF49
:100A600099872091430130914401275F3F4F3C8398
:100A70002B838D831092E900109244011092430160
:100A8000F0924201E092410149E050E080E00E9492
:100A9000F7010E941E02E2C0F0924201E092410181
:100AA0000E94F700DC011296ED90FC901397E11480
:100AB000F10409F4C0C0D701ED91FC910480F581E7
:100AC000E02DBE016B5E7F4FC7010995009719F0BD
:100AD0000CF0C4C0C7C0F701E084F184E8CF9730C0
:100AE00009F4C0C0983021F481E08093F100B6C0D1
:100AF000993009F0B3C0837009F0B4C0EDE0F1E0C3
:100B000081E021E036E39081992361F08093E90050
:100B10002093EB0091919093EC003093ED008F5F68
:100B2000873089F78EE78093EA001092EA008F8978
:100B30008093560193C08B8D9C8D1092E90010928A
:100B40004401109243019093420180934101898DA9
:100B5000811156C08E899D89913A59F4813209F0EC
:100B600081C047E050E064E071E080E00E94F7015E
:100B700075C0913209F076C0833289F4888D90E097
:100B8000982F88272F89822BA0E0B0E08093000166
:100B900090930101A0930201B09303015FC08032E2
:100BA00069F48091E80082FFFCCF67E084E091E087
:100BB0000E9450028BEF8093E80006C0823209F059
:100BC0004DC08F8980930B0180914501882319F0D6
:100BD000EEEFFAE002C0E0E0F8E0809104019091CD
:100BE0000501A0910601B0910701803B9440A10549
:100BF000B10509F07BC080910B0180FF93C076C0E6
:100C00000E94F700DC0112960D911C9113970115BB
:100C1000110541F1D801ED91FC910190F081E02D99
:100C2000BE016B5E7F4FC8010995811117C0F801A5
:100C300000851185ECCF113009F44EC0133091F4CA
:100C40008F89882309F445C0823081F440E860E14F
:100C500080E191E00E94BA01882321F08EEF809319
:100C6000E80079C081E28093EB0075C0813029F4FF
:100C700040E86BE084E091E0EDCF833099F70E948B
:100C8000F700DC011296ED90FC9013978E010F5F38
:100C90001F4F6801E114F10479F0D701ED91FC9147
:100CA0000680F781E02DB801C7010995080F111DD5
:100CB000F701E084F184EECFD8011C92F601019097
:100CC0000020E9F73197BF016C197D0940E0C601AA
:100CD000C1CF6EEE70E002C062EF70E06115710589
:100CE00009F2FB01449150E080E840CF0FB6F89440
:100CF000A8958091600088618093600010926000E8
:100D00000FBEA895EE3F2AE0F20739F08091FE0A67
:100D10009091FF0A91838083A1CF1092FF0A1092D5
:100D2000FE0A9CCFEE3F8AE0F80731F08081918186
:100D30009093FF0A8093FE0A87E797E79183808369
:100D40009BE088E10FB6F894A895809360000FBEF1
:100D50009093600083CF6C960FB6F894DEBF0FBE01
:100D6000CDBFDF91CF91FF91EF91BF91AF919F9157
:100D70008F917F916F915F914F913F912F911F9133
:100D80000F91FF90EF90DF90CF900F900FBE0F90DC
:100D90001F9018951F920F920FB60F9211242F9348
:100DA0003F938F939F93AF93BF938091390190911D
:100DB0003A01A0913B01B0913C013091380123E010
:100DC000230F2D3720F40196A11DB11D05C026E883
:100DD000230F0296A11DB11D209338018093390184
:100DE00090933A01A0933B01B0933C0180913D0167
:100DF00090913E01A0913F01B09140010196A11D4B
:100E0000B11D80933D0190933E01A0933F01B093AB
:100E10004001BF91AF919F918F913F912F910F9082
:100E20000FBE0F901F9018951F920F920FB60F9242
:100E300011242F933F934F935F936F937F938F93DF
:100E40009F93AF93BF93EF93FF9387EA91E00E9444
:100E50009203FF91EF91BF91AF919F918F917F91FD
:100E60006F915F914F913F912F910F900FBE0F9017
:100E70001F9018951F920F920FB60F9211242F9367
:100E80008F939F93EF93FF93E091B701F091B80197
:100E90008081E091BD01F091BE0182FD12C0908180
:100EA0008091C0018F5F8F732091C101821751F033
:100EB000E091C001F0E0E955FE4F958F8093C001AD
:100EC00001C08081FF91EF919F918F912F910F90A1
:100ED0000FBE0F901F901895E7E5F1E01382128284
:100EE00088EE93E0A0E0B0E084839583A683B78387
:100EF00027E131E0318320832FEF3FEF35872487CF
:100F0000E7EAF1E01382128284839583A683B78394
:100F100089E291E0918380838DEC90E095878487CE
:100F20008CEC90E09787868788EC90E0918B808BA3
:100F300089EC90E0938B828B8AEC90E0958B848B8C
:100F40008EEC90E0978B868B118E128E138E148E02
:100F50000895789484B5826084BD84B5816084BD31
:100F600085B5826085BD85B5816085BD80916E0047
:100F7000816080936E001092810080918100826078
:100F800080938100809181008160809381008091B5
:100F900080008160809380008091910082608093C6
:100FA00091008091910081608093910080919000E8
:100FB0008160809390008091C10084608093C10023
:100FC0008091C10082608093C1008091C1008160E6
:100FD0008093C1008091C30081608093C3008091A1
:100FE000C00082608093C0008091C20081608093C5
:100FF000C20080917A00846080937A0080917A00A8
:10100000826080937A0080917A00816080937A0078
:1010100080917A00806880937A0010925601109235
:101020004601109248018091D70081608093D700DB
:1010300080EA8093D80089B5806189BD89B58260D6
:1010400089BD09B400FEFDCF0E9482028091D800C4
:101050008F7C80618093D8008091E000807F8093B6
:10106000E0008091E1008E7E8093E1008DE080932E
:10107000E200559A209AEEEFFFE7859194918B3F1D
:101080009C4D19F481E080934501E091B701F09106
:10109000B80182E08083E091B301F091B401108245
:1010A000E091B501F091B60180E180831092BF011B
:1010B000E091BB01F091BC0186E08083E091B90131
:1010C000F091BA01808180618083E091B901F09153
:1010D000BA01808188608083E091B901F091BA0102
:1010E000808180688083E091B901F091BA018081AC
:1010F0008F7D808387EA91E00E947C03892B29F011
:1011000061E487EA91E00E94B3030E941C04F2CFDD
:10111000EE0FFF1F0590F491E02D099481E090E01F
:0A112000F8940C949308F894FFCFA4
:10112A00FFFFFFFF00E100000000000000C1808116
:10113A00000000000000000B019C022C012101723A
:10114A000130014E0100000000B3031C034B03FAF7
:08115A00037C035A036E03003D
:00000001FF
